{
  "abi": [
    {
      "inputs": [],
      "name": "ReceiverMismatch",
      "type": "error"
    },
    {
      "inputs": [],
      "name": "SenderMismatch",
      "type": "error"
    },
    {
      "stateMutability": "payable",
      "type": "fallback"
    },
    {
      "inputs": [],
      "name": "number",
      "outputs": [
        {
          "internalType": "uint256",
          "name": "",
          "type": "uint256"
        }
      ],
      "stateMutability": "view",
      "type": "function"
    },
    {
      "inputs": [
        {
          "internalType": "address",
          "name": "sender",
          "type": "address"
        }
      ],
      "name": "receiversList",
      "outputs": [
        {
          "internalType": "address",
          "name": "receiver",
          "type": "address"
        }
      ],
      "stateMutability": "view",
      "type": "function"
    },
    {
      "inputs": [
        {
          "internalType": "address payable",
          "name": "receiver",
          "type": "address"
        }
      ],
      "name": "sendEth",
      "outputs": [],
      "stateMutability": "payable",
      "type": "function"
    },
    {
      "inputs": [
        {
          "internalType": "address",
          "name": "receiver",
          "type": "address"
        }
      ],
      "name": "sendersList",
      "outputs": [
        {
          "internalType": "address",
          "name": "sender",
          "type": "address"
        }
      ],
      "stateMutability": "view",
      "type": "function"
    },
    {
      "inputs": [
        {
          "internalType": "address",
          "name": "receiver",
          "type": "address"
        }
      ],
      "name": "setReceiver",
      "outputs": [],
      "stateMutability": "nonpayable",
      "type": "function"
    },
    {
      "inputs": [
        {
          "internalType": "address",
          "name": "sender",
          "type": "address"
        }
      ],
      "name": "setSender",
      "outputs": [],
      "stateMutability": "nonpayable",
      "type": "function"
    },
    {
      "stateMutability": "payable",
      "type": "receive"
    }
  ],
  "bytecode": {
    "object": "0x6080604052600560025534801561001557600080fd5b50610347806100256000396000f3fe6080604052600436106100595760003560e01c80633ea2f8a914610068578063718da7ee146100bb57806376a54c60146101075780638381f58a1461011a578063aa4fd23f1461013e578063ced32b0c1461017457600080fd5b3661006357600080fd5b600080fd5b34801561007457600080fd5b5061009e6100833660046102ed565b6001602052600090815260409020546001600160a01b031681565b6040516001600160a01b0390911681526020015b60405180910390f35b3480156100c757600080fd5b506101056100d63660046102ed565b33600090815260208190526040902080546001600160a01b0319166001600160a01b0392909216919091179055565b005b6101056101153660046102ed565b6101be565b34801561012657600080fd5b5061013060025481565b6040519081526020016100b2565b34801561014a57600080fd5b5061009e6101593660046102ed565b6000602081905290815260409020546001600160a01b031681565b34801561018057600080fd5b5061010561018f3660046102ed565b33600090815260016020526040902080546001600160a01b0319166001600160a01b0392909216919091179055565b336000908152602081905260409020546001600160a01b038281169116146101f9576040516363a0db1f60e11b815260040160405180910390fd5b6001600160a01b0381811660009081526001602052604090205416331461023357604051637c62b1c760e11b815260040160405180910390fd5b6000816001600160a01b03163460405160006040518083038185875af1925050503d8060008114610280576040519150601f19603f3d011682016040523d82523d6000602084013e610285565b606091505b50509050806102d15760405162461bcd60e51b81526020600482015260146024820152732330b4b632b2103a379039b2b7321022ba3432b960611b604482015260640160405180910390fd5b5050565b6001600160a01b03811681146102ea57600080fd5b50565b6000602082840312156102ff57600080fd5b813561030a816102d5565b939250505056fea26469706673582212201a558d27f4ff8ecfb1af26ff090790ace969422e0dc39fb9c02c9ddb110c59ea64736f6c63430008140033",
    "linkReferences": {}
  },
  "methodIdentifiers": {
    "number()": "8381f58a",
    "receiversList(address)": "aa4fd23f",
    "sendEth(address)": "76a54c60",
    "sendersList(address)": "3ea2f8a9",
    "setReceiver(address)": "718da7ee",
    "setSender(address)": "ced32b0c"
  },
  "id": 19
}